{
  "_format": "hh-sol-artifact-1",
  "contractName": "Upload",
  "sourceName": "contracts/Upload.sol",
  "abi": [
    {
      "anonymous": false,
      "inputs": [
        {
          "indexed": false,
          "internalType": "address",
          "name": "user",
          "type": "address"
        },
        {
          "indexed": false,
          "internalType": "uint256",
          "name": "fileId",
          "type": "uint256"
        },
        {
          "indexed": false,
          "internalType": "string",
          "name": "fileName",
          "type": "string"
        }
      ],
      "name": "FileAdded",
      "type": "event"
    },
    {
      "anonymous": false,
      "inputs": [
        {
          "indexed": false,
          "internalType": "address",
          "name": "creator",
          "type": "address"
        },
        {
          "indexed": false,
          "internalType": "string",
          "name": "groupName",
          "type": "string"
        }
      ],
      "name": "GroupCreated",
      "type": "event"
    },
    {
      "anonymous": false,
      "inputs": [
        {
          "indexed": false,
          "internalType": "string",
          "name": "groupName",
          "type": "string"
        },
        {
          "indexed": false,
          "internalType": "address",
          "name": "member",
          "type": "address"
        }
      ],
      "name": "GroupMemberAdded",
      "type": "event"
    },
    {
      "anonymous": false,
      "inputs": [
        {
          "indexed": false,
          "internalType": "string",
          "name": "groupName",
          "type": "string"
        },
        {
          "indexed": false,
          "internalType": "address",
          "name": "member",
          "type": "address"
        }
      ],
      "name": "GroupMemberRemoved",
      "type": "event"
    },
    {
      "inputs": [
        {
          "internalType": "address",
          "name": "",
          "type": "address"
        },
        {
          "internalType": "uint256",
          "name": "",
          "type": "uint256"
        }
      ],
      "name": "accessList",
      "outputs": [
        {
          "internalType": "address",
          "name": "user",
          "type": "address"
        },
        {
          "internalType": "bool",
          "name": "access",
          "type": "bool"
        }
      ],
      "stateMutability": "view",
      "type": "function"
    },
    {
      "inputs": [
        {
          "internalType": "address",
          "name": "_user",
          "type": "address"
        },
        {
          "internalType": "string",
          "name": "fileName",
          "type": "string"
        },
        {
          "internalType": "string",
          "name": "url",
          "type": "string"
        }
      ],
      "name": "add",
      "outputs": [
        {
          "internalType": "uint256",
          "name": "",
          "type": "uint256"
        }
      ],
      "stateMutability": "nonpayable",
      "type": "function"
    },
    {
      "inputs": [
        {
          "internalType": "string",
          "name": "groupName",
          "type": "string"
        },
        {
          "internalType": "address",
          "name": "member",
          "type": "address"
        }
      ],
      "name": "addToGroup",
      "outputs": [],
      "stateMutability": "nonpayable",
      "type": "function"
    },
    {
      "inputs": [
        {
          "internalType": "address",
          "name": "user",
          "type": "address"
        },
        {
          "internalType": "uint256[]",
          "name": "fileIds",
          "type": "uint256[]"
        }
      ],
      "name": "allow",
      "outputs": [],
      "stateMutability": "nonpayable",
      "type": "function"
    },
    {
      "inputs": [
        {
          "internalType": "string",
          "name": "groupName",
          "type": "string"
        },
        {
          "internalType": "uint256[]",
          "name": "fileIds",
          "type": "uint256[]"
        }
      ],
      "name": "allowGroup",
      "outputs": [],
      "stateMutability": "nonpayable",
      "type": "function"
    },
    {
      "inputs": [
        {
          "internalType": "string",
          "name": "groupName",
          "type": "string"
        },
        {
          "internalType": "address[]",
          "name": "initialMembers",
          "type": "address[]"
        }
      ],
      "name": "createGroup",
      "outputs": [],
      "stateMutability": "nonpayable",
      "type": "function"
    },
    {
      "inputs": [
        {
          "internalType": "address",
          "name": "user",
          "type": "address"
        }
      ],
      "name": "disallow",
      "outputs": [],
      "stateMutability": "nonpayable",
      "type": "function"
    },
    {
      "inputs": [
        {
          "internalType": "address",
          "name": "user",
          "type": "address"
        }
      ],
      "name": "display",
      "outputs": [
        {
          "components": [
            {
              "internalType": "uint256",
              "name": "id",
              "type": "uint256"
            },
            {
              "internalType": "string",
              "name": "fileName",
              "type": "string"
            },
            {
              "internalType": "string",
              "name": "url",
              "type": "string"
            }
          ],
          "internalType": "struct Upload.FileData[]",
          "name": "",
          "type": "tuple[]"
        }
      ],
      "stateMutability": "view",
      "type": "function"
    },
    {
      "inputs": [
        {
          "internalType": "address",
          "name": "user",
          "type": "address"
        }
      ],
      "name": "getAllFiles",
      "outputs": [
        {
          "components": [
            {
              "internalType": "uint256",
              "name": "id",
              "type": "uint256"
            },
            {
              "internalType": "string",
              "name": "fileName",
              "type": "string"
            },
            {
              "internalType": "string",
              "name": "url",
              "type": "string"
            }
          ],
          "internalType": "struct Upload.FileData[]",
          "name": "",
          "type": "tuple[]"
        }
      ],
      "stateMutability": "view",
      "type": "function"
    },
    {
      "inputs": [],
      "name": "getGroups",
      "outputs": [
        {
          "components": [
            {
              "internalType": "string",
              "name": "name",
              "type": "string"
            },
            {
              "internalType": "address[]",
              "name": "members",
              "type": "address[]"
            },
            {
              "internalType": "bool",
              "name": "active",
              "type": "bool"
            }
          ],
          "internalType": "struct Upload.Group[]",
          "name": "",
          "type": "tuple[]"
        }
      ],
      "stateMutability": "view",
      "type": "function"
    },
    {
      "inputs": [
        {
          "internalType": "address",
          "name": "",
          "type": "address"
        },
        {
          "internalType": "string",
          "name": "",
          "type": "string"
        }
      ],
      "name": "groupIndexByName",
      "outputs": [
        {
          "internalType": "uint256",
          "name": "",
          "type": "uint256"
        }
      ],
      "stateMutability": "view",
      "type": "function"
    },
    {
      "inputs": [
        {
          "internalType": "address",
          "name": "",
          "type": "address"
        },
        {
          "internalType": "address",
          "name": "",
          "type": "address"
        }
      ],
      "name": "ownership",
      "outputs": [
        {
          "internalType": "bool",
          "name": "",
          "type": "bool"
        }
      ],
      "stateMutability": "view",
      "type": "function"
    },
    {
      "inputs": [
        {
          "internalType": "address",
          "name": "",
          "type": "address"
        },
        {
          "internalType": "address",
          "name": "",
          "type": "address"
        }
      ],
      "name": "previousData",
      "outputs": [
        {
          "internalType": "bool",
          "name": "",
          "type": "bool"
        }
      ],
      "stateMutability": "view",
      "type": "function"
    },
    {
      "inputs": [],
      "name": "shareAccess",
      "outputs": [
        {
          "components": [
            {
              "internalType": "address",
              "name": "user",
              "type": "address"
            },
            {
              "internalType": "bool",
              "name": "access",
              "type": "bool"
            },
            {
              "internalType": "uint256[]",
              "name": "fileIds",
              "type": "uint256[]"
            }
          ],
          "internalType": "struct Upload.Access[]",
          "name": "",
          "type": "tuple[]"
        }
      ],
      "stateMutability": "view",
      "type": "function"
    },
    {
      "inputs": [
        {
          "internalType": "address",
          "name": "",
          "type": "address"
        },
        {
          "internalType": "uint256",
          "name": "",
          "type": "uint256"
        }
      ],
      "name": "userGroups",
      "outputs": [
        {
          "internalType": "string",
          "name": "name",
          "type": "string"
        },
        {
          "internalType": "bool",
          "name": "active",
          "type": "bool"
        }
      ],
      "stateMutability": "view",
      "type": "function"
    },
    {
      "inputs": [
        {
          "internalType": "address",
          "name": "",
          "type": "address"
        },
        {
          "internalType": "uint256",
          "name": "",
          "type": "uint256"
        }
      ],
      "name": "value",
      "outputs": [
        {
          "internalType": "uint256",
          "name": "id",
          "type": "uint256"
        },
        {
          "internalType": "string",
          "name": "fileName",
          "type": "string"
        },
        {
          "internalType": "string",
          "name": "url",
          "type": "string"
        }
      ],
      "stateMutability": "view",
      "type": "function"
    }
  ],
  "bytecode": "0x6080604052600060065534801561001557600080fd5b50613fa8806100256000396000f3fe608060405234801561001057600080fd5b50600436106101005760003560e01c806398038e4f11610097578063c72b517611610066578063c72b5176146102e7578063cfbe575c14610305578063eb39113f14610321578063f9b942c51461035157610100565b806398038e4f14610261578063a69126c414610291578063a9ed9cb8146102ad578063bc8bef81146102c957610100565b806360a9e097116100d357806360a9e097146101b357806370c2b419146101e457806390d627aa14610215578063974fe5911461023157610100565b80630f8b27d714610105578063227d5e9a1461013757806346bc7fd91461016757806356e4342914610197575b600080fd5b61011f600480360381019061011a91906129f6565b610381565b60405161012e93929190612ad5565b60405180910390f35b610151600480360381019061014c9190612b1a565b6104d8565b60405161015e9190612b75565b60405180910390f35b610181600480360381019061017c9190612cc5565b610507565b60405161018e9190612d50565b60405180910390f35b6101b160048036038101906101ac9190612d6b565b6106b1565b005b6101cd60048036038101906101c891906129f6565b6106bf565b6040516101db929190612dc7565b60405180910390f35b6101fe60048036038101906101f991906129f6565b610795565b60405161020c929190612e06565b60405180910390f35b61022f600480360381019061022a9190612e8f565b610803565b005b61024b60048036038101906102469190612b1a565b610853565b6040516102589190612b75565b60405180910390f35b61027b60048036038101906102769190612eef565b610882565b604051610288919061308e565b60405180910390f35b6102ab60048036038101906102a691906130b0565b610a4d565b005b6102c760048036038101906102c29190612eef565b610cba565b005b6102d1610ee4565b6040516102de919061330b565b60405180910390f35b6102ef611049565b6040516102fc91906134f5565b60405180910390f35b61031f600480360381019061031a91906135da565b611220565b005b61033b60048036038101906103369190612eef565b611632565b604051610348919061308e565b60405180910390f35b61036b60048036038101906103669190613652565b611ff7565b6040516103789190612d50565b60405180910390f35b6000602052816000526040600020818154811061039d57600080fd5b9060005260206000209060030201600091509150508060000154908060010180546103c7906136dd565b80601f01602080910402602001604051908101604052809291908181526020018280546103f3906136dd565b80156104405780601f1061041557610100808354040283529160200191610440565b820191906000526020600020905b81548152906001019060200180831161042357829003601f168201915b505050505090806002018054610455906136dd565b80601f0160208091040260200160405190810160405280929190818152602001828054610481906136dd565b80156104ce5780601f106104a3576101008083540402835291602001916104ce565b820191906000526020600020905b8154815290600101906020018083116104b157829003601f168201915b5050505050905083565b60036020528160005260406000206020528060005260406000206000915091509054906101000a900460ff1681565b60008083511161054c576040517f08c379a00000000000000000000000000000000000000000000000000000000081526004016105439061375a565b60405180910390fd5b6000825111610590576040517f08c379a0000000000000000000000000000000000000000000000000000000008152600401610587906137c6565b60405180910390fd5b6000600660008154809291906105a590613815565b919050559050600060405180606001604052808381526020018681526020018581525090506000808773ffffffffffffffffffffffffffffffffffffffff1673ffffffffffffffffffffffffffffffffffffffff1681526020019081526020016000208190806001815401808255809150506001900390600052602060002090600302016000909190919091506000820151816000015560208201518160010190816106519190613a09565b5060408201518160020190816106679190613a09565b5050507f99b36d5a32132a88c5b3e733416475d6085a1b3b3559c135f1badfccead90d8586838760405161069d93929190613adb565b60405180910390a181925050509392505050565b6106bb8282612032565b5050565b600460205281600052604060002081815481106106db57600080fd5b9060005260206000209060030201600091509150508060000180546106ff906136dd565b80601f016020809104026020016040519081016040528092919081815260200182805461072b906136dd565b80156107785780601f1061074d57610100808354040283529160200191610778565b820191906000526020600020905b81548152906001019060200180831161075b57829003601f168201915b5050505050908060020160009054906101000a900460ff16905082565b600260205281600052604060002081815481106107b157600080fd5b9060005260206000209060020201600091509150508060000160009054906101000a900473ffffffffffffffffffffffffffffffffffffffff16908060000160149054906101000a900460ff16905082565b61084e83838380806020026020016040519081016040528093929190818152602001838360200280828437600081840152601f19601f8201169050808301925050505050505061234c565b505050565b60016020528160005260406000206020528060005260406000206000915091509054906101000a900460ff1681565b60606000808373ffffffffffffffffffffffffffffffffffffffff1673ffffffffffffffffffffffffffffffffffffffff168152602001908152602001600020805480602002602001604051908101604052809291908181526020016000905b82821015610a4257838290600052602060002090600302016040518060600160405290816000820154815260200160018201805461091f906136dd565b80601f016020809104026020016040519081016040528092919081815260200182805461094b906136dd565b80156109985780601f1061096d57610100808354040283529160200191610998565b820191906000526020600020905b81548152906001019060200180831161097b57829003601f168201915b505050505081526020016002820180546109b1906136dd565b80601f01602080910402602001604051908101604052809291908181526020018280546109dd906136dd565b8015610a2a5780601f106109ff57610100808354040283529160200191610a2a565b820191906000526020600020905b815481529060010190602001808311610a0d57829003601f168201915b505050505081525050815260200190600101906108e2565b505050509050919050565b6000600560003373ffffffffffffffffffffffffffffffffffffffff1673ffffffffffffffffffffffffffffffffffffffff16815260200190815260200160002084604051610a9c9190613b55565b908152602001604051809103902054905060008111610af0576040517f08c379a0000000000000000000000000000000000000000000000000000000008152600401610ae790613bb8565b60405180910390fd5b8080610afb90613bd8565b9150506000600460003373ffffffffffffffffffffffffffffffffffffffff1673ffffffffffffffffffffffffffffffffffffffff1681526020019081526020016000208281548110610b5157610b50613c01565b5b906000526020600020906003020190508060020160009054906101000a900460ff16610bb2576040517f08c379a0000000000000000000000000000000000000000000000000000000008152600401610ba990613c7c565b60405180910390fd5b6000816001018054905011610bfc576040517f08c379a0000000000000000000000000000000000000000000000000000000008152600401610bf390613ce8565b60405180910390fd5b60005b8160010180549050811015610cb2576000826001018281548110610c2657610c25613c01565b5b9060005260206000200160009054906101000a900473ffffffffffffffffffffffffffffffffffffffff169050610c9e81878780806020026020016040519081016040528093929190818152602001838360200280828437600081840152601f19601f8201169050808301925050505050505061234c565b508080610caa90613815565b915050610bff565b505050505050565b6000600160003373ffffffffffffffffffffffffffffffffffffffff1673ffffffffffffffffffffffffffffffffffffffff16815260200190815260200160002060008373ffffffffffffffffffffffffffffffffffffffff1673ffffffffffffffffffffffffffffffffffffffff16815260200190815260200160002060006101000a81548160ff02191690831515021790555060005b600260003373ffffffffffffffffffffffffffffffffffffffff1673ffffffffffffffffffffffffffffffffffffffff16815260200190815260200160002080549050811015610ee0578173ffffffffffffffffffffffffffffffffffffffff16600260003373ffffffffffffffffffffffffffffffffffffffff1673ffffffffffffffffffffffffffffffffffffffff1681526020019081526020016000208281548110610e0457610e03613c01565b5b906000526020600020906002020160000160009054906101000a900473ffffffffffffffffffffffffffffffffffffffff1673ffffffffffffffffffffffffffffffffffffffff1603610ecd576000600260003373ffffffffffffffffffffffffffffffffffffffff1673ffffffffffffffffffffffffffffffffffffffff1681526020019081526020016000208281548110610ea457610ea3613c01565b5b906000526020600020906002020160000160146101000a81548160ff0219169083151502179055505b8080610ed890613815565b915050610d52565b5050565b6060600260003373ffffffffffffffffffffffffffffffffffffffff1673ffffffffffffffffffffffffffffffffffffffff168152602001908152602001600020805480602002602001604051908101604052809291908181526020016000905b8282101561104057838290600052602060002090600202016040518060600160405290816000820160009054906101000a900473ffffffffffffffffffffffffffffffffffffffff1673ffffffffffffffffffffffffffffffffffffffff1673ffffffffffffffffffffffffffffffffffffffff1681526020016000820160149054906101000a900460ff161515151581526020016001820180548060200260200160405190810160405280929190818152602001828054801561102857602002820191906000526020600020905b815481526020019060010190808311611014575b50505050508152505081526020019060010190610f45565b50505050905090565b6060600460003373ffffffffffffffffffffffffffffffffffffffff1673ffffffffffffffffffffffffffffffffffffffff168152602001908152602001600020805480602002602001604051908101604052809291908181526020016000905b8282101561121757838290600052602060002090600302016040518060600160405290816000820180546110dd906136dd565b80601f0160208091040260200160405190810160405280929190818152602001828054611109906136dd565b80156111565780601f1061112b57610100808354040283529160200191611156565b820191906000526020600020905b81548152906001019060200180831161113957829003601f168201915b50505050508152602001600182018054806020026020016040519081016040528092919081815260200182805480156111e457602002820191906000526020600020905b8160009054906101000a900473ffffffffffffffffffffffffffffffffffffffff1673ffffffffffffffffffffffffffffffffffffffff168152602001906001019080831161119a575b505050505081526020016002820160009054906101000a900460ff161515151581525050815260200190600101906110aa565b50505050905090565b6000825111611264576040517f08c379a000000000000000000000000000000000000000000000000000000000815260040161125b90613d54565b60405180910390fd5b6000600560003373ffffffffffffffffffffffffffffffffffffffff1673ffffffffffffffffffffffffffffffffffffffff168152602001908152602001600020836040516112b39190613b55565b9081526020016040518091039020549050600081111561138a57600460003373ffffffffffffffffffffffffffffffffffffffff1673ffffffffffffffffffffffffffffffffffffffff1681526020019081526020016000206001826113199190613d74565b8154811061132a57611329613c01565b5b906000526020600020906003020160020160009054906101000a900460ff1615611389576040517f08c379a000000000000000000000000000000000000000000000000000000000815260040161138090613e1a565b60405180910390fd5b5b60006040518060600160405280858152602001600067ffffffffffffffff8111156113b8576113b7612b9a565b5b6040519080825280602002602001820160405280156113e65781602001602082028036833780820191505090505b508152602001600115158152509050600460003373ffffffffffffffffffffffffffffffffffffffff1673ffffffffffffffffffffffffffffffffffffffff16815260200190815260200160002081908060018154018082558091505060019003906000526020600020906003020160009091909190915060008201518160000190816114739190613a09565b506020820151816001019080519060200190611490929190612839565b5060408201518160020160006101000a81548160ff0219169083151502179055505050600460003373ffffffffffffffffffffffffffffffffffffffff1673ffffffffffffffffffffffffffffffffffffffff16815260200190815260200160002080549050600560003373ffffffffffffffffffffffffffffffffffffffff1673ffffffffffffffffffffffffffffffffffffffff168152602001908152602001600020856040516115439190613b55565b9081526020016040518091039020819055506000835111156115f35760005b83518110156115f157600073ffffffffffffffffffffffffffffffffffffffff1684828151811061159657611595613c01565b5b602002602001015173ffffffffffffffffffffffffffffffffffffffff16146115de576115dd858583815181106115d0576115cf613c01565b5b6020026020010151612032565b5b80806115e990613815565b915050611562565b505b7fc41039f832f30470d1a983be3dc26f5432197ae33f31f1170f73fccfd67439fb3385604051611624929190613e3a565b60405180910390a150505050565b60603373ffffffffffffffffffffffffffffffffffffffff168273ffffffffffffffffffffffffffffffffffffffff1603611830576000808373ffffffffffffffffffffffffffffffffffffffff1673ffffffffffffffffffffffffffffffffffffffff168152602001908152602001600020805480602002602001604051908101604052809291908181526020016000905b82821015611825578382906000526020600020906003020160405180606001604052908160008201548152602001600182018054611702906136dd565b80601f016020809104026020016040519081016040528092919081815260200182805461172e906136dd565b801561177b5780601f106117505761010080835404028352916020019161177b565b820191906000526020600020905b81548152906001019060200180831161175e57829003601f168201915b50505050508152602001600282018054611794906136dd565b80601f01602080910402602001604051908101604052809291908181526020018280546117c0906136dd565b801561180d5780601f106117e25761010080835404028352916020019161180d565b820191906000526020600020905b8154815290600101906020018083116117f057829003601f168201915b505050505081525050815260200190600101906116c5565b505050509050611ff2565b600160008373ffffffffffffffffffffffffffffffffffffffff1673ffffffffffffffffffffffffffffffffffffffff16815260200190815260200160002060003373ffffffffffffffffffffffffffffffffffffffff1673ffffffffffffffffffffffffffffffffffffffff16815260200190815260200160002060009054906101000a900460ff166118f9576040517f08c379a00000000000000000000000000000000000000000000000000000000081526004016118f090613eb6565b60405180910390fd5b60606000805b600260008673ffffffffffffffffffffffffffffffffffffffff1673ffffffffffffffffffffffffffffffffffffffff16815260200190815260200160002080549050811015611b46573373ffffffffffffffffffffffffffffffffffffffff16600260008773ffffffffffffffffffffffffffffffffffffffff1673ffffffffffffffffffffffffffffffffffffffff16815260200190815260200160002082815481106119b1576119b0613c01565b5b906000526020600020906002020160000160009054906101000a900473ffffffffffffffffffffffffffffffffffffffff1673ffffffffffffffffffffffffffffffffffffffff16148015611a725750600260008673ffffffffffffffffffffffffffffffffffffffff1673ffffffffffffffffffffffffffffffffffffffff1681526020019081526020016000208181548110611a5257611a51613c01565b5b906000526020600020906002020160000160149054906101000a900460ff165b15611b3357600260008673ffffffffffffffffffffffffffffffffffffffff1673ffffffffffffffffffffffffffffffffffffffff1681526020019081526020016000208181548110611ac857611ac7613c01565b5b9060005260206000209060020201600101805480602002602001604051908101604052809291908181526020018280548015611b2357602002820191906000526020600020905b815481526020019060010190808311611b0f575b5050505050925060019150611b46565b8080611b3e90613815565b9150506118ff565b50801580611b55575060008251145b15611bb857600067ffffffffffffffff811115611b7557611b74612b9a565b5b604051908082528060200260200182016040528015611bae57816020015b611b9b6128c3565b815260200190600190039081611b935790505b5092505050611ff2565b6000805b6000808773ffffffffffffffffffffffffffffffffffffffff1673ffffffffffffffffffffffffffffffffffffffff16815260200190815260200160002080549050811015611cc95760005b8451811015611cb557848181518110611c2457611c23613c01565b5b60200260200101516000808973ffffffffffffffffffffffffffffffffffffffff1673ffffffffffffffffffffffffffffffffffffffff1681526020019081526020016000208381548110611c7c57611c7b613c01565b5b90600052602060002090600302016000015403611ca2578280611c9e90613815565b9350505b8080611cad90613815565b915050611c08565b508080611cc190613815565b915050611bbc565b5060008167ffffffffffffffff811115611ce657611ce5612b9a565b5b604051908082528060200260200182016040528015611d1f57816020015b611d0c6128c3565b815260200190600190039081611d045790505b5090506000805b6000808973ffffffffffffffffffffffffffffffffffffffff1673ffffffffffffffffffffffffffffffffffffffff16815260200190815260200160002080549050811015611fe85760005b8651811015611fd457868181518110611d8e57611d8d613c01565b5b60200260200101516000808b73ffffffffffffffffffffffffffffffffffffffff1673ffffffffffffffffffffffffffffffffffffffff1681526020019081526020016000208381548110611de657611de5613c01565b5b90600052602060002090600302016000015403611fc1576000808a73ffffffffffffffffffffffffffffffffffffffff1673ffffffffffffffffffffffffffffffffffffffff1681526020019081526020016000208281548110611e4d57611e4c613c01565b5b906000526020600020906003020160405180606001604052908160008201548152602001600182018054611e80906136dd565b80601f0160208091040260200160405190810160405280929190818152602001828054611eac906136dd565b8015611ef95780601f10611ece57610100808354040283529160200191611ef9565b820191906000526020600020905b815481529060010190602001808311611edc57829003601f168201915b50505050508152602001600282018054611f12906136dd565b80601f0160208091040260200160405190810160405280929190818152602001828054611f3e906136dd565b8015611f8b5780601f10611f6057610100808354040283529160200191611f8b565b820191906000526020600020905b815481529060010190602001808311611f6e57829003601f168201915b505050505081525050848481518110611fa757611fa6613c01565b5b60200260200101819052508280611fbd90613815565b9350505b8080611fcc90613815565b915050611d72565b508080611fe090613815565b915050611d26565b5081955050505050505b919050565b600560205281600052604060002081805160208101820180518482526020830160208501208183528095505050505050600091509150505481565b600073ffffffffffffffffffffffffffffffffffffffff168173ffffffffffffffffffffffffffffffffffffffff16036120a1576040517f08c379a000000000000000000000000000000000000000000000000000000000815260040161209890613f22565b60405180910390fd5b6000600560003373ffffffffffffffffffffffffffffffffffffffff1673ffffffffffffffffffffffffffffffffffffffff168152602001908152602001600020836040516120f09190613b55565b908152602001604051809103902054905060008111612144576040517f08c379a000000000000000000000000000000000000000000000000000000000815260040161213b90613bb8565b60405180910390fd5b808061214f90613bd8565b9150506000600460003373ffffffffffffffffffffffffffffffffffffffff1673ffffffffffffffffffffffffffffffffffffffff16815260200190815260200160002082815481106121a5576121a4613c01565b5b906000526020600020906003020190508060020160009054906101000a900460ff16612206576040517f08c379a00000000000000000000000000000000000000000000000000000000081526004016121fd90613c7c565b60405180910390fd5b60005b81600101805490508110156122a6578373ffffffffffffffffffffffffffffffffffffffff1682600101828154811061224557612244613c01565b5b9060005260206000200160009054906101000a900473ffffffffffffffffffffffffffffffffffffffff1673ffffffffffffffffffffffffffffffffffffffff160361229357505050612348565b808061229e90613815565b915050612209565b5080600101839080600181540180825580915050600190039060005260206000200160009091909190916101000a81548173ffffffffffffffffffffffffffffffffffffffff021916908373ffffffffffffffffffffffffffffffffffffffff1602179055507f483b51de433f23f83140d1622c92096a346dc39b2fed55b7a7a5b23b7eee3f55848460405161233d929190613f42565b60405180910390a150505b5050565b60018060003373ffffffffffffffffffffffffffffffffffffffff1673ffffffffffffffffffffffffffffffffffffffff16815260200190815260200160002060008473ffffffffffffffffffffffffffffffffffffffff1673ffffffffffffffffffffffffffffffffffffffff16815260200190815260200160002060006101000a81548160ff021916908315150217905550600360003373ffffffffffffffffffffffffffffffffffffffff1673ffffffffffffffffffffffffffffffffffffffff16815260200190815260200160002060008373ffffffffffffffffffffffffffffffffffffffff1673ffffffffffffffffffffffffffffffffffffffff16815260200190815260200160002060009054906101000a900460ff161561267d5760005b600260003373ffffffffffffffffffffffffffffffffffffffff1673ffffffffffffffffffffffffffffffffffffffff16815260200190815260200160002080549050811015612677578273ffffffffffffffffffffffffffffffffffffffff16600260003373ffffffffffffffffffffffffffffffffffffffff1673ffffffffffffffffffffffffffffffffffffffff168152602001908152602001600020828154811061252457612523613c01565b5b906000526020600020906002020160000160009054906101000a900473ffffffffffffffffffffffffffffffffffffffff1673ffffffffffffffffffffffffffffffffffffffff1603612664576001600260003373ffffffffffffffffffffffffffffffffffffffff1673ffffffffffffffffffffffffffffffffffffffff16815260200190815260200160002082815481106125c4576125c3613c01565b5b906000526020600020906002020160000160146101000a81548160ff02191690831515021790555081600260003373ffffffffffffffffffffffffffffffffffffffff1673ffffffffffffffffffffffffffffffffffffffff168152602001908152602001600020828154811061263e5761263d613c01565b5b906000526020600020906002020160010190805190602001906126629291906128e4565b505b808061266f90613815565b915050612472565b50612835565b600260003373ffffffffffffffffffffffffffffffffffffffff1673ffffffffffffffffffffffffffffffffffffffff16815260200190815260200160002060405180606001604052808473ffffffffffffffffffffffffffffffffffffffff16815260200160011515815260200183815250908060018154018082558091505060019003906000526020600020906002020160009091909190915060008201518160000160006101000a81548173ffffffffffffffffffffffffffffffffffffffff021916908373ffffffffffffffffffffffffffffffffffffffff16021790555060208201518160000160146101000a81548160ff021916908315150217905550604082015181600101908051906020019061279c9291906128e4565b5050506001600360003373ffffffffffffffffffffffffffffffffffffffff1673ffffffffffffffffffffffffffffffffffffffff16815260200190815260200160002060008473ffffffffffffffffffffffffffffffffffffffff1673ffffffffffffffffffffffffffffffffffffffff16815260200190815260200160002060006101000a81548160ff0219169083151502179055505b5050565b8280548282559060005260206000209081019282156128b2579160200282015b828111156128b15782518260006101000a81548173ffffffffffffffffffffffffffffffffffffffff021916908373ffffffffffffffffffffffffffffffffffffffff16021790555091602001919060010190612859565b5b5090506128bf9190612931565b5090565b60405180606001604052806000815260200160608152602001606081525090565b828054828255906000526020600020908101928215612920579160200282015b8281111561291f578251825591602001919060010190612904565b5b50905061292d9190612931565b5090565b5b8082111561294a576000816000905550600101612932565b5090565b6000604051905090565b600080fd5b600080fd5b600073ffffffffffffffffffffffffffffffffffffffff82169050919050565b600061298d82612962565b9050919050565b61299d81612982565b81146129a857600080fd5b50565b6000813590506129ba81612994565b92915050565b6000819050919050565b6129d3816129c0565b81146129de57600080fd5b50565b6000813590506129f0816129ca565b92915050565b60008060408385031215612a0d57612a0c612958565b5b6000612a1b858286016129ab565b9250506020612a2c858286016129e1565b9150509250929050565b612a3f816129c0565b82525050565b600081519050919050565b600082825260208201905092915050565b60005b83811015612a7f578082015181840152602081019050612a64565b60008484015250505050565b6000601f19601f8301169050919050565b6000612aa782612a45565b612ab18185612a50565b9350612ac1818560208601612a61565b612aca81612a8b565b840191505092915050565b6000606082019050612aea6000830186612a36565b8181036020830152612afc8185612a9c565b90508181036040830152612b108184612a9c565b9050949350505050565b60008060408385031215612b3157612b30612958565b5b6000612b3f858286016129ab565b9250506020612b50858286016129ab565b9150509250929050565b60008115159050919050565b612b6f81612b5a565b82525050565b6000602082019050612b8a6000830184612b66565b92915050565b600080fd5b600080fd5b7f4e487b7100000000000000000000000000000000000000000000000000000000600052604160045260246000fd5b612bd282612a8b565b810181811067ffffffffffffffff82111715612bf157612bf0612b9a565b5b80604052505050565b6000612c0461294e565b9050612c108282612bc9565b919050565b600067ffffffffffffffff821115612c3057612c2f612b9a565b5b612c3982612a8b565b9050602081019050919050565b82818337600083830152505050565b6000612c68612c6384612c15565b612bfa565b905082815260208101848484011115612c8457612c83612b95565b5b612c8f848285612c46565b509392505050565b600082601f830112612cac57612cab612b90565b5b8135612cbc848260208601612c55565b91505092915050565b600080600060608486031215612cde57612cdd612958565b5b6000612cec868287016129ab565b935050602084013567ffffffffffffffff811115612d0d57612d0c61295d565b5b612d1986828701612c97565b925050604084013567ffffffffffffffff811115612d3a57612d3961295d565b5b612d4686828701612c97565b9150509250925092565b6000602082019050612d656000830184612a36565b92915050565b60008060408385031215612d8257612d81612958565b5b600083013567ffffffffffffffff811115612da057612d9f61295d565b5b612dac85828601612c97565b9250506020612dbd858286016129ab565b9150509250929050565b60006040820190508181036000830152612de18185612a9c565b9050612df06020830184612b66565b9392505050565b612e0081612982565b82525050565b6000604082019050612e1b6000830185612df7565b612e286020830184612b66565b9392505050565b600080fd5b600080fd5b60008083601f840112612e4f57612e4e612b90565b5b8235905067ffffffffffffffff811115612e6c57612e6b612e2f565b5b602083019150836020820283011115612e8857612e87612e34565b5b9250929050565b600080600060408486031215612ea857612ea7612958565b5b6000612eb6868287016129ab565b935050602084013567ffffffffffffffff811115612ed757612ed661295d565b5b612ee386828701612e39565b92509250509250925092565b600060208284031215612f0557612f04612958565b5b6000612f13848285016129ab565b91505092915050565b600081519050919050565b600082825260208201905092915050565b6000819050602082019050919050565b612f51816129c0565b82525050565b600082825260208201905092915050565b6000612f7382612a45565b612f7d8185612f57565b9350612f8d818560208601612a61565b612f9681612a8b565b840191505092915050565b6000606083016000830151612fb96000860182612f48565b5060208301518482036020860152612fd18282612f68565b91505060408301518482036040860152612feb8282612f68565b9150508091505092915050565b60006130048383612fa1565b905092915050565b6000602082019050919050565b600061302482612f1c565b61302e8185612f27565b93508360208202850161304085612f38565b8060005b8581101561307c578484038952815161305d8582612ff8565b94506130688361300c565b925060208a01995050600181019050613044565b50829750879550505050505092915050565b600060208201905081810360008301526130a88184613019565b905092915050565b6000806000604084860312156130c9576130c8612958565b5b600084013567ffffffffffffffff8111156130e7576130e661295d565b5b6130f386828701612c97565b935050602084013567ffffffffffffffff8111156131145761311361295d565b5b61312086828701612e39565b92509250509250925092565b600081519050919050565b600082825260208201905092915050565b6000819050602082019050919050565b61316181612982565b82525050565b61317081612b5a565b82525050565b600081519050919050565b600082825260208201905092915050565b6000819050602082019050919050565b60006131ae8383612f48565b60208301905092915050565b6000602082019050919050565b60006131d282613176565b6131dc8185613181565b93506131e783613192565b8060005b838110156132185781516131ff88826131a2565b975061320a836131ba565b9250506001810190506131eb565b5085935050505092915050565b600060608301600083015161323d6000860182613158565b5060208301516132506020860182613167565b506040830151848203604086015261326882826131c7565b9150508091505092915050565b60006132818383613225565b905092915050565b6000602082019050919050565b60006132a18261312c565b6132ab8185613137565b9350836020820285016132bd85613148565b8060005b858110156132f957848403895281516132da8582613275565b94506132e583613289565b925060208a019950506001810190506132c1565b50829750879550505050505092915050565b600060208201905081810360008301526133258184613296565b905092915050565b600081519050919050565b600082825260208201905092915050565b6000819050602082019050919050565b600081519050919050565b600082825260208201905092915050565b6000819050602082019050919050565b60006133918383613158565b60208301905092915050565b6000602082019050919050565b60006133b582613359565b6133bf8185613364565b93506133ca83613375565b8060005b838110156133fb5781516133e28882613385565b97506133ed8361339d565b9250506001810190506133ce565b5085935050505092915050565b600060608301600083015184820360008601526134258282612f68565b9150506020830151848203602086015261343f82826133aa565b91505060408301516134546040860182613167565b508091505092915050565b600061346b8383613408565b905092915050565b6000602082019050919050565b600061348b8261332d565b6134958185613338565b9350836020820285016134a785613349565b8060005b858110156134e357848403895281516134c4858261345f565b94506134cf83613473565b925060208a019950506001810190506134ab565b50829750879550505050505092915050565b6000602082019050818103600083015261350f8184613480565b905092915050565b600067ffffffffffffffff82111561353257613531612b9a565b5b602082029050602081019050919050565b600061355661355184613517565b612bfa565b9050808382526020820190506020840283018581111561357957613578612e34565b5b835b818110156135a2578061358e88826129ab565b84526020840193505060208101905061357b565b5050509392505050565b600082601f8301126135c1576135c0612b90565b5b81356135d1848260208601613543565b91505092915050565b600080604083850312156135f1576135f0612958565b5b600083013567ffffffffffffffff81111561360f5761360e61295d565b5b61361b85828601612c97565b925050602083013567ffffffffffffffff81111561363c5761363b61295d565b5b613648858286016135ac565b9150509250929050565b6000806040838503121561366957613668612958565b5b6000613677858286016129ab565b925050602083013567ffffffffffffffff8111156136985761369761295d565b5b6136a485828601612c97565b9150509250929050565b7f4e487b7100000000000000000000000000000000000000000000000000000000600052602260045260246000fd5b600060028204905060018216806136f557607f821691505b602082108103613708576137076136ae565b5b50919050565b7f46696c656e616d652063616e6e6f7420626520656d7074790000000000000000600082015250565b6000613744601883612a50565b915061374f8261370e565b602082019050919050565b6000602082019050818103600083015261377381613737565b9050919050565b7f55524c2063616e6e6f7420626520656d70747900000000000000000000000000600082015250565b60006137b0601383612a50565b91506137bb8261377a565b602082019050919050565b600060208201905081810360008301526137df816137a3565b9050919050565b7f4e487b7100000000000000000000000000000000000000000000000000000000600052601160045260246000fd5b6000613820826129c0565b91507fffffffffffffffffffffffffffffffffffffffffffffffffffffffffffffffff8203613852576138516137e6565b5b600182019050919050565b60008190508160005260206000209050919050565b60006020601f8301049050919050565b600082821b905092915050565b6000600883026138bf7fffffffffffffffffffffffffffffffffffffffffffffffffffffffffffffffff82613882565b6138c98683613882565b95508019841693508086168417925050509392505050565b6000819050919050565b60006139066139016138fc846129c0565b6138e1565b6129c0565b9050919050565b6000819050919050565b613920836138eb565b61393461392c8261390d565b84845461388f565b825550505050565b600090565b61394961393c565b613954818484613917565b505050565b5b818110156139785761396d600082613941565b60018101905061395a565b5050565b601f8211156139bd5761398e8161385d565b61399784613872565b810160208510156139a6578190505b6139ba6139b285613872565b830182613959565b50505b505050565b600082821c905092915050565b60006139e0600019846008026139c2565b1980831691505092915050565b60006139f983836139cf565b9150826002028217905092915050565b613a1282612a45565b67ffffffffffffffff811115613a2b57613a2a612b9a565b5b613a3582546136dd565b613a4082828561397c565b600060209050601f831160018114613a735760008415613a61578287015190505b613a6b85826139ed565b865550613ad3565b601f198416613a818661385d565b60005b82811015613aa957848901518255600182019150602085019450602081019050613a84565b86831015613ac65784890151613ac2601f8916826139cf565b8355505b6001600288020188555050505b505050505050565b6000606082019050613af06000830186612df7565b613afd6020830185612a36565b8181036040830152613b0f8184612a9c565b9050949350505050565b600081905092915050565b6000613b2f82612a45565b613b398185613b19565b9350613b49818560208601612a61565b80840191505092915050565b6000613b618284613b24565b915081905092915050565b7f47726f757020646f6573206e6f74206578697374000000000000000000000000600082015250565b6000613ba2601483612a50565b9150613bad82613b6c565b602082019050919050565b60006020820190508181036000830152613bd181613b95565b9050919050565b6000613be3826129c0565b915060008203613bf657613bf56137e6565b5b600182039050919050565b7f4e487b7100000000000000000000000000000000000000000000000000000000600052603260045260246000fd5b7f47726f7570206973206e6f742061637469766500000000000000000000000000600082015250565b6000613c66601383612a50565b9150613c7182613c30565b602082019050919050565b60006020820190508181036000830152613c9581613c59565b9050919050565b7f47726f757020686173206e6f206d656d62657273000000000000000000000000600082015250565b6000613cd2601483612a50565b9150613cdd82613c9c565b602082019050919050565b60006020820190508181036000830152613d0181613cc5565b9050919050565b7f47726f7570206e616d652063616e6e6f7420626520656d707479000000000000600082015250565b6000613d3e601a83612a50565b9150613d4982613d08565b602082019050919050565b60006020820190508181036000830152613d6d81613d31565b9050919050565b6000613d7f826129c0565b9150613d8a836129c0565b9250828203905081811115613da257613da16137e6565b5b92915050565b7f47726f757020616c72656164792065786973747320616e64206973206163746960008201527f7665000000000000000000000000000000000000000000000000000000000000602082015250565b6000613e04602283612a50565b9150613e0f82613da8565b604082019050919050565b60006020820190508181036000830152613e3381613df7565b9050919050565b6000604082019050613e4f6000830185612df7565b8181036020830152613e618184612a9c565b90509392505050565b7f596f7520646f6e27742068617665206163636573730000000000000000000000600082015250565b6000613ea0601583612a50565b9150613eab82613e6a565b602082019050919050565b60006020820190508181036000830152613ecf81613e93565b9050919050565b7f496e76616c6964206d656d626572206164647265737300000000000000000000600082015250565b6000613f0c601683612a50565b9150613f1782613ed6565b602082019050919050565b60006020820190508181036000830152613f3b81613eff565b9050919050565b60006040820190508181036000830152613f5c8185612a9c565b9050613f6b6020830184612df7565b939250505056fea264697066735822122002a5134abaa28ff956f8831b4e2da258ec7afa027cb7ff31ea76d27aa03f9a4764736f6c63430008130033",
  "linkReferences": {},
  "deployedLinkReferences": {}
}